{
  "contractName": "TokenFarm",
  "abi": [
    {
      "inputs": [
        {
          "internalType": "contract DaiToken",
          "name": "_daiToken",
          "type": "address"
        },
        {
          "internalType": "contract DappToken",
          "name": "_dappToken",
          "type": "address"
        }
      ],
      "stateMutability": "nonpayable",
      "type": "constructor"
    },
    {
      "inputs": [],
      "name": "daiToken",
      "outputs": [
        {
          "internalType": "contract DaiToken",
          "name": "",
          "type": "address"
        }
      ],
      "stateMutability": "view",
      "type": "function",
      "constant": true
    },
    {
      "inputs": [],
      "name": "dappToken",
      "outputs": [
        {
          "internalType": "contract DappToken",
          "name": "",
          "type": "address"
        }
      ],
      "stateMutability": "view",
      "type": "function",
      "constant": true
    },
    {
      "inputs": [],
      "name": "name",
      "outputs": [
        {
          "internalType": "string",
          "name": "",
          "type": "string"
        }
      ],
      "stateMutability": "view",
      "type": "function",
      "constant": true
    }
  ],
  "bytecode": "0x60806040526040518060400160405280600f81526020017f4461707020546f6b656e204661726d00000000000000000000000000000000008152506000908051906020019061004f929190610123565b5034801561005c57600080fd5b506040516104543803806104548339818101604052604081101561007f57600080fd5b81019080805190602001909291908051906020019092919050505080600160006101000a81548173ffffffffffffffffffffffffffffffffffffffff021916908373ffffffffffffffffffffffffffffffffffffffff16021790555081600260006101000a81548173ffffffffffffffffffffffffffffffffffffffff021916908373ffffffffffffffffffffffffffffffffffffffff16021790555050506101c8565b828054600181600116156101000203166002900490600052602060002090601f016020900481019282601f1061016457805160ff1916838001178555610192565b82800160010185558215610192579182015b82811115610191578251825591602001919060010190610176565b5b50905061019f91906101a3565b5090565b6101c591905b808211156101c15760008160009055506001016101a9565b5090565b90565b61027d806101d76000396000f3fe608060405234801561001057600080fd5b50600436106100415760003560e01c806306fdde03146100465780635eb186f8146100c9578063be22f54614610113575b600080fd5b61004e61015d565b6040518080602001828103825283818151815260200191508051906020019080838360005b8381101561008e578082015181840152602081019050610073565b50505050905090810190601f1680156100bb5780820380516001836020036101000a031916815260200191505b509250505060405180910390f35b6100d16101fb565b604051808273ffffffffffffffffffffffffffffffffffffffff1673ffffffffffffffffffffffffffffffffffffffff16815260200191505060405180910390f35b61011b610221565b604051808273ffffffffffffffffffffffffffffffffffffffff1673ffffffffffffffffffffffffffffffffffffffff16815260200191505060405180910390f35b60008054600181600116156101000203166002900480601f0160208091040260200160405190810160405280929190818152602001828054600181600116156101000203166002900480156101f35780601f106101c8576101008083540402835291602001916101f3565b820191906000526020600020905b8154815290600101906020018083116101d657829003601f168201915b505050505081565b600160009054906101000a900473ffffffffffffffffffffffffffffffffffffffff1681565b600260009054906101000a900473ffffffffffffffffffffffffffffffffffffffff168156fea2646970667358221220696211a09c46196482f6d2b7944b9d4032c202784027de7b5e3beedfcd0dc20264736f6c63430006000033",
  "source": "pragma solidity ^0.6.0;\r\nimport './DaiToken.sol';\r\nimport './DappToken.sol';\r\n\r\ncontract TokenFarm {\r\n    string public name =\"Dapp Token Farm\";\r\n\r\n    DappToken public dappToken;\r\n    DaiToken public daiToken;\r\n\r\n    constructor(DaiToken _daiToken, DappToken _dappToken)public {\r\n      dappToken=_dappToken;\r\n      daiToken=_daiToken;\r\n    }\r\n}",
  "sourcePath": "C:/Users/Abhishek/Desktop/web dev/JS_INTERVIEW/REACTJS/PROJECT1/EAT_THE_BLOCKS/git_defi-banking-app/defi-bank-app/src/contracts/TokenFarm.sol",
  "compiler": {
    "name": "solc",
    "version": "0.6.0+commit.26b70077.Emscripten.clang"
  },
  "schemaVersion": "3.3.1",
  "updatedAt": "2020-11-25T08:26:47.123Z",
  "networkType": "ethereum",
  "devdoc": {
    "methods": {}
  },
  "userdoc": {
    "methods": {}
  }
}